:1000000026C040C03FC03EC03DC03CC03BC03AC01F
:1000100039C0D4C037C0A8C035C034C033C032C026
:1000200031C000003B003800020202010101010161
:1000300001010102010204804020100804020108AD
:100040000000010203040000000000000000112471
:100050001FBECFE5D2E0DEBFCDBF10E0A0E6B0E02E
:10006000E0E5FCE002C005900D92AC38B107D9F78D
:1000700020E0ACE8B0E001C01D92AA39B207E1F778
:1000800004D1E4C5BDCF87FF07C0E82FEF778AE032
:100090008E1BE83008F08FEF90E0FC01E05CFF4F32
:1000A0003491FC01EC5CFF4F2491FC01E85DFF4FB3
:1000B000E491EE23B9F0332329F03130A1F480B775
:1000C0008F7780BFF0E0EE0FFF1FEE5DFF4FA59131
:1000D000B4918FB7611117C0F894EC9120952E233D
:1000E0002C938FBF0895323019F480B78F7DE9CFFC
:1000F000333021F48FB58F778FBDE4CF343011F7D3
:100100008FB58F7DF9CFF894EC912E2BE9CF2CECA5
:1001100037E0615071098109910908F40895F901E6
:100120003197F1F7F6CF20918D0030918E00C90103
:10013000817099279195819591098827947B3695AF
:1001400027958227932790938E0080938D000895A2
:10015000E0E6F0E01082118212821382349680E091
:10016000E837F807B9F708951F920F920FB60F926C
:1001700011248F939F93AF93BF938BB38F618BBBEE
:10018000C19AC0988091930090919400A09195009D
:10019000B09196000296A11DB11D8093930090939B
:1001A0009400A0939500B0939600BF91AF919F915A
:1001B0008F910F900FBE0F901F9018951F920F9266
:1001C0000FB60F921124CF92DF92EF92FF921F93FE
:1001D0002F933F934F935F936F937F938F939F934F
:1001E000AF93BF93CF93DF93EF93FF9324E8C22E97
:1001F00020E0D22EF12CE12C10918C00C12FD0E008
:10020000F6018081F2E0CF0ED11CFE01EE0FFF1F40
:10021000EE0FFF1FE05AFF4FEE0DFF1D908161E0D2
:10022000913009F060E02FDF8FEFE81AF80A94E0D0
:10023000E916F10409F7CC0FDD1FC858DF4F60E065
:10024000888121DF1F5F1630D0F410938C00FF915E
:10025000EF91DF91CF91BF91AF919F918F917F915E
:100260006F915F914F913F912F911F91FF90EF9070
:10027000DF90CF900F900FBE0F901F9018951092A7
:100280008C0061E080E0FFDEE2CF81B781BF78942F
:1002900080B7826080BF80B7816080BF83B7887F6E
:1002A000836083BF78948EB5887F8EBD8FB5816063
:1002B0008FBD8FB58D7F8FBD8EB5877F8EBD8EB57F
:1002C0008F7E8EBD8EB583608EBD86B18877866841
:1002D00086B9379A9FEF9ABB87E087BB9BBB88BBE9
:1002E00080B7836080BF83E083BF8BE986BF89B717
:1002F000826089BF89B7816089BF789490E080E08F
:1003000047D42AE08227BC016170772771956195F7
:1003100071096627747B969587956827792770936E
:100320008E0060938D0090E080E037D46BE9762EEC
:1003300076E0472E512CE3E02E2E312C4091930095
:1003400050919400609195007091960080918F007B
:1003500090919000A0919100B0919200E09198004E
:10036000F09199008A019B01081B190B2A0B3B0B8A
:10037000093813412105310530F03196DB01CA01FE
:10038000E830F10574F4E830F10560F7E753FE4F0B
:10039000099407C049C0A2C0D0C047C1BEC157C25E
:1003A00062C380938F0090939000A0939100B093CC
:1003B00092001092990010929800CADE76BE68EC06
:1003C00070E080E090E0A3DEC0E6D0E010E000E066
:1003D000FF24F394F992FB82FF82FB86FF86FB8A5F
:1003E0000130110529F068EC70E080E090E08FDECC
:1003F0000F5F1F4F0430110569F7C4E6D0E01A9271
:100400001C8218861C86188A1C8AE0E0C236DE0729
:1004100029F068EC70E080E090E079DE80E690E022
:100420008C179D0761F78ACF80938F00909390007F
:10043000A0939100B0939200E1E0F0E0F093990076
:10044000E093980085DE76BE66E470E080E090E0A0
:100450005EDEC0E6D0E08E01FF24F394F801F08266
:1004600066E470E080E090E052DEF801F28266E43B
:1004700070E080E090E04BDEF801F38266E470E02B
:1004800080E090E044DEF801F18266E470E080E014
:1004900090E03DDE0C5F1F4FF0E008371F07F1F6DC
:1004A000188266E470E080E090E031DE1A8266E453
:1004B00070E080E090E02BDE1B8266E470E080E07C
:1004C00090E025DE198266E470E080E090E01FDEB7
:1004D000249620E0C837D20719F730CF80938F00D9
:1004E00090939000A0939100B093920082E090E0EE
:1004F000909399008093980081E086BFE0E6F0E059
:100500008083818382838383349690E0E837F90780
:10051000B9F7C1E0C6BF68E070E080E090E0F7DDC9
:10052000CF5FCF3FB9F7CEEFC6BF68E070E080E0A5
:1005300090E0EDDDC150C1F701CF80938F00909323
:100540009000A0939100B093920030929900209275
:100550009800FEDD76BE66E470E080E090E0D7DDD6
:1005600040E6E42E40E0F42E8701C1E0F801C083AC
:1005700066E470E080E090E0CADD0C5F1F4FF0E0C1
:1005800008371F0799F7C0E6D0E0DD24D394DA825C
:10059000D98266E470E080E090E0B9DD24960C1723
:1005A0001D07A9F700E610E0DD24D394F801D382FB
:1005B00066E470E080E090E0AADD0C5F1F4F0C174E
:1005C0001D07A1F76EE571E080E090E0A0DDC0E6D8
:1005D000D0E01F8A66E470E080E090E098DD249728
:1005E000F0E0C834DF07A9F7C0E6D0E01D8A1E8A14
:1005F00066E470E080E090E08ADD249720E0C83473
:10060000D207A1F7F701148A66E470E080E090E079
:100610007EDDF4E0EF1AF108CE15DF0599F76EE5FF
:1006200071E080E090E073DD89CE80938F0090933D
:100630009000A0939100B093920084E090E090939A
:1006400099008093980084DD76BEEE24E3946BDD00
:10065000B201D5D2EC0167DD83709927CC0FDD1F85
:10066000CC0FDD1FC05ADF4FC80FD91F8881811101
:1006700006C0E88266E470E080E090E048DD00E6D5
:1006800010E0FF24F39490E080E0F801E80FF91FF8
:100690002081211101C0F12C019684309105A9F728
:1006A0000C5F1F4F90E00837190769F7FF2079F2B8
:1006B0006EE571E080E090E02ADD35DDB2019FD289
:1006C000EC0131DD83709927CC0FDD1FCC0FDD1FCE
:1006D000C05ADF4FC80FD91F8881813031F418828A
:1006E00066E470E080E090E012DD80E690E040E0BB
:1006F00030E020E0FC01E20FF31F5081513009F49B
:100700004F2D2F5F3F4F24303105A1F70496081776
:10071000190771F74111D1CF82CF80938F00909349
:100720009000A0939100B0939200E5E0F0E0F09388
:100730009900E09398000CDD76BE6CEB72E080E0EF
:1007400090E0E5DCC0E6D0E08E0195EFD92EFF24E5
:10075000F394D6BEF801F182F58685EF982E96BE09
:1007600061E070E080E090E0D2DC9A94FBEA9F12B6
:10077000F6CFF801F282F68696BE61E070E080E086
:1007800090E0C5DC9A94F7E59F12F6CFF801F3826A
:10079000F78696BE61E070E080E090E0B8DC9A9465
:1007A000F1E09F12F6CFF80190829486EE24E39454
:1007B000E6BE61E070E080E090E0A9DCE394FEEF4B
:1007C000EF12F6CFC5DC0C5F1F4F20E00C3612078E
:1007D00009F0BFCFD12CC12CF12CE12C88248394BB
:1007E00089928B828F828B868F868B8A81E0E81636
:1007F000F104D1F0C60164E570E0F0D18C019FEF07
:10080000C91AD90A5801E4E5AE0EB11C0A151B0538
:100810005CF4802F809586BF63E070E080E090E01C
:1008200076DC0F5F1F4FF2CFFFEFEF1AFF0A24E0D5
:10083000E216F104A9F696BE63E070E080E090E075
:1008400066DC93948EEF9812F6CF82DC77CD80939E
:100850008F0090939000A0939100B09392005092DB
:10086000990040929800C0919700D0E071DC76BE6C
:10087000CE01B101D8D16C01EC01CC0FDD1FCC0F42
:10088000DD1FC05ADF4F8E0199249394F8019082A6
:1008900063E270E080E090E03ADCF80191829282BD
:1008A00063E270E080E090E032DCF801938263E282
:1008B00070E080E090E02BDC5801FCE0AF0EB11C52
:1008C000F12CE12CF50191925F01F1E0EF16F104BA
:1008D00029F063E270E080E090E019DC2FEFE21A8B
:1008E000F20A84E0E816F10469F766E470E080E05B
:1008F00090E00DDC0C5F1F4F90E00C36190731F6CD
:1009000000E610E0B12CA12C66246394F80160820B
:1009100063E270E080E090E0FADBF80161826282DD
:1009200063E270E080E090E0F2DBF801638263E272
:1009300070E080E090E0EBDB4801FCE08F0E911C62
:10094000F12CE12CF40161924F01F1E0EF16F1047A
:1009500029F063E270E080E090E0D9DB2FEFE21A4B
:10096000F20A84E0E816F10469F766E470E080E0DA
:1009700090E0CDDB9FEFA91AB90A0C5F1F4FCA1494
:10098000DB0424F61B8263E270E080E090E0BFDBD2
:100990001A82198263E270E080E090E0B8DB18828E
:1009A00063E270E080E090E0B2DB7E0103E010E003
:1009B000F70117860230110529F063E270E080E04C
:1009C00090E0A5DB01501109F1E0EF1AF1080F3FAB
:1009D000100771F766E470E080E090E098DB249700
:1009E00080E0CC35D80771F6C8E6D0E012E0E12E01
:1009F000F12C1B8263E270E080E090E088DB1A82D9
:100A0000198263E270E080E090E081DB188263E2AB
:100A100070E080E090E07BDB5E0103E010E0F50138
:100A200017860230110529F063E270E080E090E063
:100A30006EDB01501109F1E0AF1AB1080F3F10074A
:100A400071F766E470E080E090E061DB81E0E81A35
:100A5000F1082497EC14FD0464F6809197008F5FF1
:100A6000809397006BCC80938F0090939000A0931D
:100A70009100B0939200E7E0F0E0F0939900E093EA
:100A8000980066DB62E370E080E090E040DB76BED9
:100A900081E080936000809362008093630062E352
:100AA00070E080E090E033DB30E020E011E0F9011D
:100AB000F595E795EE0FFF1FEE0FFF1FE05AFF4F72
:100AC0001083C901E901219637FDCE0195958795DF
:100AD0009195819591090596880F991F880F991F07
:100AE00020FF4CC0FC01E05AFF4F1283138362E3E6
:100AF00070E080E090E00BDB9E012B97C1F664E68E
:100B000070E080E090E003DB1092600010926200E1
:100B10001092630062E370E080E090E0F8DA30E089
:100B200020E0F901F595E795EE0FFF1FEE0FFF1F8F
:100B3000E05AFF4F1082C901E901219637FDCE012D
:100B4000959587959195819591090596880F991F9F
:100B5000880F991F20FF17C0FC01E05AFF4F128237
:100B6000138262E370E080E090E0D1DA9E012B977F
:100B7000C1F664E670E080E090E055CD805A9F4F6A
:100B8000FC011183B4CF805A9F4FFC011182E9CF41
:100B9000A8E1B0E042E050E005C012D0272F11C01C
:100BA000DC01CB01FC01E199FECF06C0FFBBEEBB2F
:100BB000E09A31960DB20D9241505040B8F7089529
:100BC000262FE199FECF1CBA9FBB8EBB2DBB0FB663
:100BD000F894E29AE19A0FBE0196089500245527F1
:100BE00004C0080E591F880F991F009729F07695A9
:100BF0006795B8F37105B9F7802D952F0895AA1B55
:100C0000BB1B51E107C0AA1FBB1FA617B70710F0F7
:100C1000A61BB70B881F991F5A95A9F78095909529
:100C2000BC01CD01089597FB072E16F4009406D061
:100C300077FD08D0E4DF07FC05D03EF49095819560
:100C40009F4F0895709561957F4F0895F894FFCF59
:100C5000000001000001000001000000000101008F
:100C600000000001010000000A0009000100080066
:0C0C70000700060005000200030004005D
:00000001FF
